{
  "contractName": "DebidAuction",
  "abi": [
    {
      "inputs": [],
      "stateMutability": "nonpayable",
      "type": "constructor"
    },
    {
      "anonymous": false,
      "inputs": [
        {
          "indexed": false,
          "internalType": "uint256",
          "name": "id",
          "type": "uint256"
        },
        {
          "indexed": false,
          "internalType": "string",
          "name": "ownerName",
          "type": "string"
        },
        {
          "indexed": false,
          "internalType": "string",
          "name": "title",
          "type": "string"
        },
        {
          "indexed": false,
          "internalType": "uint256",
          "name": "startPrice",
          "type": "uint256"
        },
        {
          "indexed": false,
          "internalType": "uint256",
          "name": "cancelTime",
          "type": "uint256"
        }
      ],
      "name": "AuctionCanceled",
      "type": "event"
    },
    {
      "anonymous": false,
      "inputs": [
        {
          "indexed": false,
          "internalType": "string",
          "name": "title",
          "type": "string"
        },
        {
          "indexed": false,
          "internalType": "uint256",
          "name": "startPrice",
          "type": "uint256"
        },
        {
          "indexed": false,
          "internalType": "address",
          "name": "owner",
          "type": "address"
        },
        {
          "indexed": false,
          "internalType": "address",
          "name": "highestBidder",
          "type": "address"
        },
        {
          "indexed": false,
          "internalType": "uint256",
          "name": "highestBidAmount",
          "type": "uint256"
        },
        {
          "indexed": false,
          "internalType": "uint256",
          "name": "duration",
          "type": "uint256"
        }
      ],
      "name": "AuctionClosed",
      "type": "event"
    },
    {
      "anonymous": false,
      "inputs": [
        {
          "indexed": false,
          "internalType": "uint256",
          "name": "id",
          "type": "uint256"
        },
        {
          "indexed": false,
          "internalType": "string",
          "name": "ownerName",
          "type": "string"
        },
        {
          "indexed": false,
          "internalType": "string",
          "name": "title",
          "type": "string"
        },
        {
          "indexed": false,
          "internalType": "uint256",
          "name": "startPrice",
          "type": "uint256"
        },
        {
          "indexed": false,
          "internalType": "uint256",
          "name": "startTime",
          "type": "uint256"
        }
      ],
      "name": "AuctionStarted",
      "type": "event"
    },
    {
      "anonymous": false,
      "inputs": [
        {
          "indexed": false,
          "internalType": "address",
          "name": "bidder",
          "type": "address"
        },
        {
          "indexed": false,
          "internalType": "uint256",
          "name": "amount",
          "type": "uint256"
        }
      ],
      "name": "HighestBidIncreased",
      "type": "event"
    },
    {
      "anonymous": false,
      "inputs": [
        {
          "indexed": false,
          "internalType": "address",
          "name": "prevBidder",
          "type": "address"
        },
        {
          "indexed": false,
          "internalType": "uint256",
          "name": "prevBidAmount",
          "type": "uint256"
        },
        {
          "indexed": false,
          "internalType": "uint256",
          "name": "refundTime",
          "type": "uint256"
        }
      ],
      "name": "PreviousBidderRefunded",
      "type": "event"
    },
    {
      "anonymous": false,
      "inputs": [
        {
          "indexed": false,
          "internalType": "address",
          "name": "user",
          "type": "address"
        },
        {
          "indexed": false,
          "internalType": "uint256",
          "name": "amount",
          "type": "uint256"
        }
      ],
      "name": "Transfered",
      "type": "event"
    },
    {
      "anonymous": false,
      "inputs": [
        {
          "indexed": false,
          "internalType": "address",
          "name": "user",
          "type": "address"
        },
        {
          "indexed": false,
          "internalType": "uint256",
          "name": "amount",
          "type": "uint256"
        }
      ],
      "name": "Withdrawn",
      "type": "event"
    },
    {
      "inputs": [
        {
          "internalType": "string",
          "name": "_ownerName",
          "type": "string"
        },
        {
          "internalType": "string",
          "name": "_title",
          "type": "string"
        },
        {
          "internalType": "string",
          "name": "_description",
          "type": "string"
        },
        {
          "internalType": "string",
          "name": "_imagePath",
          "type": "string"
        },
        {
          "internalType": "uint256",
          "name": "_startPrice",
          "type": "uint256"
        },
        {
          "internalType": "uint256",
          "name": "_endTime",
          "type": "uint256"
        }
      ],
      "name": "createAuction",
      "outputs": [
        {
          "internalType": "uint256",
          "name": "",
          "type": "uint256"
        }
      ],
      "stateMutability": "nonpayable",
      "type": "function"
    },
    {
      "inputs": [
        {
          "internalType": "uint256",
          "name": "_auctionId",
          "type": "uint256"
        }
      ],
      "name": "bid",
      "outputs": [
        {
          "internalType": "bool",
          "name": "",
          "type": "bool"
        }
      ],
      "stateMutability": "payable",
      "type": "function"
    },
    {
      "inputs": [
        {
          "internalType": "uint256",
          "name": "_auctionId",
          "type": "uint256"
        }
      ],
      "name": "closeAuction",
      "outputs": [
        {
          "internalType": "bool",
          "name": "",
          "type": "bool"
        }
      ],
      "stateMutability": "nonpayable",
      "type": "function"
    },
    {
      "inputs": [
        {
          "internalType": "uint256",
          "name": "_auctionId",
          "type": "uint256"
        }
      ],
      "name": "withdraw",
      "outputs": [
        {
          "internalType": "bool",
          "name": "",
          "type": "bool"
        }
      ],
      "stateMutability": "nonpayable",
      "type": "function"
    },
    {
      "inputs": [
        {
          "internalType": "uint256",
          "name": "_auctionId",
          "type": "uint256"
        }
      ],
      "name": "cancelAuction",
      "outputs": [
        {
          "internalType": "bool",
          "name": "",
          "type": "bool"
        }
      ],
      "stateMutability": "nonpayable",
      "type": "function"
    },
    {
      "inputs": [
        {
          "internalType": "uint256",
          "name": "_auctionId",
          "type": "uint256"
        }
      ],
      "name": "getAuctionDetails",
      "outputs": [
        {
          "internalType": "uint256",
          "name": "",
          "type": "uint256"
        },
        {
          "internalType": "address",
          "name": "",
          "type": "address"
        },
        {
          "internalType": "string",
          "name": "",
          "type": "string"
        },
        {
          "internalType": "string",
          "name": "",
          "type": "string"
        },
        {
          "internalType": "string",
          "name": "",
          "type": "string"
        },
        {
          "internalType": "string",
          "name": "",
          "type": "string"
        },
        {
          "internalType": "uint256",
          "name": "",
          "type": "uint256"
        },
        {
          "internalType": "bool",
          "name": "",
          "type": "bool"
        },
        {
          "internalType": "uint256",
          "name": "",
          "type": "uint256"
        },
        {
          "internalType": "uint256",
          "name": "",
          "type": "uint256"
        },
        {
          "internalType": "uint256",
          "name": "",
          "type": "uint256"
        },
        {
          "components": [
            {
              "internalType": "address",
              "name": "bidder",
              "type": "address"
            },
            {
              "internalType": "uint256",
              "name": "amount",
              "type": "uint256"
            },
            {
              "internalType": "uint256",
              "name": "time",
              "type": "uint256"
            }
          ],
          "internalType": "struct DebidAuction.Bid",
          "name": "",
          "type": "tuple"
        }
      ],
      "stateMutability": "view",
      "type": "function"
    },
    {
      "inputs": [
        {
          "internalType": "address",
          "name": "_owner",
          "type": "address"
        }
      ],
      "name": "getAllAuctionIdsOfOwner",
      "outputs": [
        {
          "internalType": "uint256[]",
          "name": "",
          "type": "uint256[]"
        }
      ],
      "stateMutability": "view",
      "type": "function"
    },
    {
      "inputs": [
        {
          "internalType": "address",
          "name": "_bidder",
          "type": "address"
        }
      ],
      "name": "getAllAuctionIdsOfBidder",
      "outputs": [
        {
          "internalType": "uint256[]",
          "name": "",
          "type": "uint256[]"
        }
      ],
      "stateMutability": "view",
      "type": "function"
    },
    {
      "inputs": [
        {
          "internalType": "uint256",
          "name": "_auctionId",
          "type": "uint256"
        }
      ],
      "name": "getAllBidderAddressesOfAuction",
      "outputs": [
        {
          "internalType": "address[]",
          "name": "",
          "type": "address[]"
        }
      ],
      "stateMutability": "view",
      "type": "function"
    },
    {
      "inputs": [
        {
          "internalType": "uint256",
          "name": "_auctionId",
          "type": "uint256"
        },
        {
          "internalType": "uint256",
          "name": "_bidId",
          "type": "uint256"
        }
      ],
      "name": "getBidById",
      "outputs": [
        {
          "internalType": "address",
          "name": "",
          "type": "address"
        },
        {
          "internalType": "uint256",
          "name": "",
          "type": "uint256"
        },
        {
          "internalType": "uint256",
          "name": "",
          "type": "uint256"
        }
      ],
      "stateMutability": "view",
      "type": "function"
    },
    {
      "inputs": [
        {
          "internalType": "uint256",
          "name": "_auctionId",
          "type": "uint256"
        }
      ],
      "name": "geHighestBidOfAuction",
      "outputs": [
        {
          "internalType": "address",
          "name": "",
          "type": "address"
        },
        {
          "internalType": "uint256",
          "name": "",
          "type": "uint256"
        },
        {
          "internalType": "uint256",
          "name": "",
          "type": "uint256"
        }
      ],
      "stateMutability": "view",
      "type": "function"
    },
    {
      "inputs": [
        {
          "internalType": "uint256",
          "name": "_auctionId",
          "type": "uint256"
        }
      ],
      "name": "getBidCountOfAuction",
      "outputs": [
        {
          "internalType": "uint256",
          "name": "",
          "type": "uint256"
        }
      ],
      "stateMutability": "view",
      "type": "function"
    },
    {
      "inputs": [
        {
          "internalType": "uint256",
          "name": "_auctionId",
          "type": "uint256"
        },
        {
          "internalType": "address",
          "name": "_bidder",
          "type": "address"
        }
      ],
      "name": "getBidCountOfBidder",
      "outputs": [
        {
          "internalType": "uint256",
          "name": "",
          "type": "uint256"
        }
      ],
      "stateMutability": "view",
      "type": "function"
    },
    {
      "inputs": [
        {
          "internalType": "uint256",
          "name": "_auctionId",
          "type": "uint256"
        },
        {
          "internalType": "address",
          "name": "_bidder",
          "type": "address"
        }
      ],
      "name": "getBidAmountOfBidder",
      "outputs": [
        {
          "internalType": "uint256",
          "name": "",
          "type": "uint256"
        }
      ],
      "stateMutability": "view",
      "type": "function"
    },
    {
      "inputs": [
        {
          "internalType": "uint256",
          "name": "_auctionId",
          "type": "uint256"
        }
      ],
      "name": "getAllBids",
      "outputs": [
        {
          "components": [
            {
              "internalType": "address",
              "name": "bidder",
              "type": "address"
            },
            {
              "internalType": "uint256",
              "name": "amount",
              "type": "uint256"
            },
            {
              "internalType": "uint256",
              "name": "time",
              "type": "uint256"
            }
          ],
          "internalType": "struct DebidAuction.Bid[]",
          "name": "",
          "type": "tuple[]"
        }
      ],
      "stateMutability": "view",
      "type": "function"
    },
    {
      "inputs": [],
      "name": "getAllAuctions",
      "outputs": [
        {
          "internalType": "uint256[]",
          "name": "",
          "type": "uint256[]"
        }
      ],
      "stateMutability": "view",
      "type": "function"
    },
    {
      "inputs": [],
      "name": "getAuctionCount",
      "outputs": [
        {
          "internalType": "uint256",
          "name": "",
          "type": "uint256"
        }
      ],
      "stateMutability": "view",
      "type": "function"
    },
    {
      "inputs": [],
      "name": "getContractOwner",
      "outputs": [
        {
          "internalType": "address",
          "name": "",
          "type": "address"
        }
      ],
      "stateMutability": "view",
      "type": "function"
    },
    {
      "inputs": [],
      "name": "getContractAddress",
      "outputs": [
        {
          "internalType": "address",
          "name": "",
          "type": "address"
        }
      ],
      "stateMutability": "view",
      "type": "function"
    },
    {
      "inputs": [],
      "name": "getContractBalance",
      "outputs": [
        {
          "internalType": "uint256",
          "name": "",
          "type": "uint256"
        }
      ],
      "stateMutability": "view",
      "type": "function"
    }
  ],
  "bytecode": "0x608060405234801561001057600080fd5b50336000806101000a81548173ffffffffffffffffffffffffffffffffffffffff021916908373ffffffffffffffffffffffffffffffffffffffff1602179055506000600281905550614230806100686000396000f3fe60806040526004361061011f5760003560e01c8063a528ff83116100a0578063cbd2bdfd11610064578063cbd2bdfd14610464578063cd250e981461048f578063d5a9e441146104ce578063de442dbd1461050b578063f20e5e35146105485761011f565b8063a528ff8314610345578063a9f12c1414610382578063be4c3add146103bf578063c44e6640146103fc578063ca1478aa146104275761011f565b8063454a2ab3116100e7578063454a2ab3146102335780634b43901e146102635780635b73145b146102a05780636f9fb98a146102dd57806396b5a755146103085761011f565b8063194a433414610124578063236ed8f3146101635780632e1a7d4d146101a057806332a2c5d0146101dd578063442890d514610208575b600080fd5b34801561013057600080fd5b5061014b60048036038101906101469190612c56565b610590565b60405161015a93929190613327565b60405180910390f35b34801561016f57600080fd5b5061018a60048036038101906101859190612c56565b6106c5565b60405161019791906133c4565b60405180910390f35b3480156101ac57600080fd5b506101c760048036038101906101c29190612c56565b61096b565b6040516101d491906133c4565b60405180910390f35b3480156101e957600080fd5b506101f2610ceb565b6040516101ff91906132e3565b60405180910390f35b34801561021457600080fd5b5061021d610cf3565b60405161022a91906132e3565b60405180910390f35b61024d60048036038101906102489190612c56565b610d1c565b60405161025a91906133c4565b60405180910390f35b34801561026f57600080fd5b5061028a60048036038101906102859190612c56565b611512565b6040516102979190613707565b60405180910390f35b3480156102ac57600080fd5b506102c760048036038101906102c29190612b6d565b6115c0565b6040516102d49190613707565b60405180910390f35b3480156102e957600080fd5b506102f2611915565b6040516102ff9190613707565b60405180910390f35b34801561031457600080fd5b5061032f600480360381019061032a9190612c56565b61191d565b60405161033c91906133c4565b60405180910390f35b34801561035157600080fd5b5061036c60048036038101906103679190612c56565b611bb0565b6040516103799190613380565b60405180910390f35b34801561038e57600080fd5b506103a960048036038101906103a49190612c7f565b611d1e565b6040516103b69190613707565b60405180910390f35b3480156103cb57600080fd5b506103e660048036038101906103e19190612c56565b611fa5565b6040516103f3919061335e565b60405180910390f35b34801561040857600080fd5b50610411612046565b60405161041e9190613707565b60405180910390f35b34801561043357600080fd5b5061044e60048036038101906104499190612b44565b612050565b60405161045b91906133a2565b60405180910390f35b34801561047057600080fd5b506104796120e7565b60405161048691906133a2565b60405180910390f35b34801561049b57600080fd5b506104b660048036038101906104b19190612cbb565b61213f565b6040516104c593929190613327565b60405180910390f35b3480156104da57600080fd5b506104f560048036038101906104f09190612b44565b612351565b60405161050291906133a2565b60405180910390f35b34801561051757600080fd5b50610532600480360381019061052d9190612c7f565b6123e8565b60405161053f9190613707565b60405180910390f35b34801561055457600080fd5b5061056f600480360381019061056a9190612c56565b6125eb565b6040516105879c9b9a99989796959493929190613722565b60405180910390f35b60008060008084101580156105a9575083600180549050115b6105e8576040517f08c379a00000000000000000000000000000000000000000000000000000000081526004016105df90613667565b60405180910390fd5b600060018581548110610624577f4e487b7100000000000000000000000000000000000000000000000000000000600052603260045260246000fd5b90600052602060002090601102019050600081600b0160010154141561067f576040517f08c379a000000000000000000000000000000000000000000000000000000000815260040161067690613447565b60405180910390fd5b80600b0160000160009054906101000a900473ffffffffffffffffffffffffffffffffffffffff1681600b016001015482600b0160020154935093509350509193909250565b60008082101580156106db575081600180549050115b61071a576040517f08c379a000000000000000000000000000000000000000000000000000000000815260040161071190613667565b60405180910390fd5b600060018381548110610756577f4e487b7100000000000000000000000000000000000000000000000000000000600052603260045260246000fd5b906000526020600020906011020190508060090160009054906101000a900460ff166107b7576040517f08c379a00000000000000000000000000000000000000000000000000000000081526004016107ae90613627565b60405180910390fd5b8060090160019054906101000a900460ff1615610809576040517f08c379a000000000000000000000000000000000000000000000000000000000815260040161080090613567565b60405180910390fd5b8060060154421015610850576040517f08c379a0000000000000000000000000000000000000000000000000000000008152600401610847906136a7565b60405180910390fd5b8060070154421115610897576040517f08c379a000000000000000000000000000000000000000000000000000000000815260040161088e906136e7565b60405180910390fd5b60008160090160006101000a81548160ff0219169083151502179055507f43021769b923f47253b8bf97e1075748c93f20189df75d84fd2d95722d802ad48160030182600801548360010160009054906101000a900473ffffffffffffffffffffffffffffffffffffffff1684600b0160000160009054906101000a900473ffffffffffffffffffffffffffffffffffffffff1685600b0160010154866006015487600701546109479190613a9c565b604051610959969594939291906133df565b60405180910390a16001915050919050565b6000808210158015610981575081600180549050115b6109c0576040517f08c379a00000000000000000000000000000000000000000000000000000000081526004016109b790613667565b60405180910390fd5b6000600183815481106109fc577f4e487b7100000000000000000000000000000000000000000000000000000000600052603260045260246000fd5b906000526020600020906011020190508060090160009054906101000a900460ff161580610a3857508060090160019054906101000a900460ff165b610a77576040517f08c379a0000000000000000000000000000000000000000000000000000000008152600401610a6e90613607565b60405180910390fd5b60008160090160019054906101000a900460ff1615610ad95781600f0160003373ffffffffffffffffffffffffffffffffffffffff1673ffffffffffffffffffffffffffffffffffffffff168152602001908152602001600020549050610c1d565b8160010160009054906101000a900473ffffffffffffffffffffffffffffffffffffffff1673ffffffffffffffffffffffffffffffffffffffff163373ffffffffffffffffffffffffffffffffffffffff161415610bbb5781600b01600101549050600082600b0160010181905550600082600f01600084600b0160000160009054906101000a900473ffffffffffffffffffffffffffffffffffffffff1673ffffffffffffffffffffffffffffffffffffffff1673ffffffffffffffffffffffffffffffffffffffff16815260200190815260200160002081905550610c1c565b81600b0160000160009054906101000a900473ffffffffffffffffffffffffffffffffffffffff1673ffffffffffffffffffffffffffffffffffffffff163373ffffffffffffffffffffffffffffffffffffffff161415610c1b57600090505b5b5b60008111610c60576040517f08c379a0000000000000000000000000000000000000000000000000000000008152600401610c57906134c7565b60405180910390fd5b3373ffffffffffffffffffffffffffffffffffffffff166108fc829081150290604051600060405180830381858888f19350505050158015610ca6573d6000803e3d6000fd5b507f7084f5476618d8e60b11ef0d7d3f06914655adb8793e28ff7f018d4c76d505d53382604051610cd89291906132fe565b60405180910390a1600192505050919050565b600030905090565b60008060009054906101000a900473ffffffffffffffffffffffffffffffffffffffff16905090565b6000808210158015610d32575081600180549050115b610d71576040517f08c379a0000000000000000000000000000000000000000000000000000000008152600401610d6890613667565b60405180910390fd5b600060018381548110610dad577f4e487b7100000000000000000000000000000000000000000000000000000000600052603260045260246000fd5b906000526020600020906011020190503373ffffffffffffffffffffffffffffffffffffffff168160010160009054906101000a900473ffffffffffffffffffffffffffffffffffffffff1673ffffffffffffffffffffffffffffffffffffffff161415610e50576040517f08c379a0000000000000000000000000000000000000000000000000000000008152600401610e47906134e7565b60405180910390fd5b8060090160009054906101000a900460ff16610ea1576040517f08c379a0000000000000000000000000000000000000000000000000000000008152600401610e9890613507565b60405180910390fd5b8060090160019054906101000a900460ff1615610ef3576040517f08c379a0000000000000000000000000000000000000000000000000000000008152600401610eea90613567565b60405180910390fd5b8060060154421015610f3a576040517f08c379a0000000000000000000000000000000000000000000000000000000008152600401610f31906136a7565b60405180910390fd5b8060070154421115610f81576040517f08c379a0000000000000000000000000000000000000000000000000000000008152600401610f78906136e7565b60405180910390fd5b60003411610fc4576040517f08c379a0000000000000000000000000000000000000000000000000000000008152600401610fbb90613547565b60405180910390fd5b600081600b0160010154141561101c57806008015434101561101b576040517f08c379a0000000000000000000000000000000000000000000000000000000008152600401611012906136c7565b60405180910390fd5b5b6110246129d8565b60008083600a015411156110b55782600b016040518060600160405290816000820160009054906101000a900473ffffffffffffffffffffffffffffffffffffffff1673ffffffffffffffffffffffffffffffffffffffff1673ffffffffffffffffffffffffffffffffffffffff168152602001600182015481526020016002820154815250509150816020015190505b8034116110f7576040517f08c379a00000000000000000000000000000000000000000000000000000000081526004016110ee90613467565b60405180910390fd5b600083600a0154111561118e57816000015173ffffffffffffffffffffffffffffffffffffffff166108fc83602001519081150290604051600060405180830381858888f1935050505061114a57600080fd5b7fc1b965f1c3f6ca4e6b72ef538db364e944c95494bcdbbbe8826cf6c71a40ac7a826000015183602001514260405161118593929190613327565b60405180910390a15b600034905083600b016001015481116111dc576040517f08c379a00000000000000000000000000000000000000000000000000000000081526004016111d390613527565b60405180910390fd5b3384600b0160000160006101000a81548173ffffffffffffffffffffffffffffffffffffffff021916908373ffffffffffffffffffffffffffffffffffffffff1602179055508084600b01600101819055504284600b01600201819055508084600f0160003373ffffffffffffffffffffffffffffffffffffffff1673ffffffffffffffffffffffffffffffffffffffff168152602001908152602001600020600082825461128b91906139ec565b925050819055506006600085600001548152602001908152602001600020339080600181540180825580915050600190039060005260206000200160009091909190916101000a81548173ffffffffffffffffffffffffffffffffffffffff021916908373ffffffffffffffffffffffffffffffffffffffff16021790555083600e0184600b0190806001815401808255809150506001900390600052602060002090600302016000909190919091506000820160009054906101000a900473ffffffffffffffffffffffffffffffffffffffff168160000160006101000a81548173ffffffffffffffffffffffffffffffffffffffff021916908373ffffffffffffffffffffffffffffffffffffffff16021790555060018201548160010155600282015481600201555050600560003373ffffffffffffffffffffffffffffffffffffffff1673ffffffffffffffffffffffffffffffffffffffff168152602001908152602001600020846000015490806001815401808255809150506001900390600052602060002001600090919091909150558360100160003373ffffffffffffffffffffffffffffffffffffffff1673ffffffffffffffffffffffffffffffffffffffff168152602001908152602001600020600081548092919061147490613bbd565b919050555083600a01600081548092919061148e90613bbd565b91905055507f419013ffbfd3a7e95a13645088f1f9b8aff6057aaa2a840cc18ddbbec3d1677c33346040516114c49291906132fe565b60405180910390a17ff4757a49b326036464bec6fe419a4ae38c8a02ce3e68bf0809674f6aab8ad30033826040516114fd9291906132fe565b60405180910390a16001945050505050919050565b6000808210158015611528575081600180549050115b611567576040517f08c379a000000000000000000000000000000000000000000000000000000000815260040161155e90613667565b60405180910390fd5b6000600183815481106115a3577f4e487b7100000000000000000000000000000000000000000000000000000000600052603260045260246000fd5b9060005260206000209060110201905080600a0154915050919050565b600081421115611605576040517f08c379a00000000000000000000000000000000000000000000000000000000081526004016115fc906135e7565b60405180910390fd5b814210611647576040517f08c379a000000000000000000000000000000000000000000000000000000000815260040161163e90613587565b60405180910390fd5b6000831161168a576040517f08c379a000000000000000000000000000000000000000000000000000000000815260040161168190613647565b60405180910390fd5b6001808160018154018082558091505003906000526020600020905050600060025490506000600182815481106116ea577f4e487b7100000000000000000000000000000000000000000000000000000000600052603260045260246000fd5b90600052602060002090601102019050818160000181905550338160010160006101000a81548173ffffffffffffffffffffffffffffffffffffffff021916908373ffffffffffffffffffffffffffffffffffffffff1602179055508881600201908051906020019061175e929190612a0f565b5087816003019080519060200190611777929190612a0f565b5086816004019080519060200190611790929190612a0f565b50858160050190805190602001906117a9929190612a0f565b50670de0b6b3a7640000856117be9190613a42565b816008018190555042816006018190555083816007018190555060018160090160006101000a81548160ff02191690831515021790555060008160090160016101000a81548160ff021916908315150217905550600081600a0181905550600460003373ffffffffffffffffffffffffffffffffffffffff1673ffffffffffffffffffffffffffffffffffffffff1681526020019081526020016000208290806001815401808255809150506001900390600052602060002001600090919091909150556003829080600181540180825580915050600190039060005260206000200160009091909190915055600260008154809291906118be90613bbd565b91905055507f2e05df4c3a23a4fc3f7ac5dce6b896fe7521fea4fbea45a2fc0102d69cca6837828a8a8885600601546040516118fe9594939291906137f8565b60405180910390a181925050509695505050505050565b600047905090565b6000808210158015611933575081600180549050115b611972576040517f08c379a000000000000000000000000000000000000000000000000000000000815260040161196990613667565b60405180910390fd5b6000600183815481106119ae577f4e487b7100000000000000000000000000000000000000000000000000000000600052603260045260246000fd5b906000526020600020906011020190503373ffffffffffffffffffffffffffffffffffffffff168160010160009054906101000a900473ffffffffffffffffffffffffffffffffffffffff1673ffffffffffffffffffffffffffffffffffffffff1614611a50576040517f08c379a0000000000000000000000000000000000000000000000000000000008152600401611a47906135c7565b60405180910390fd5b8060090160009054906101000a900460ff16611aa1576040517f08c379a0000000000000000000000000000000000000000000000000000000008152600401611a98906134a7565b60405180910390fd5b8060060154421015611ae8576040517f08c379a0000000000000000000000000000000000000000000000000000000008152600401611adf906136a7565b60405180910390fd5b8060070154421115611b2f576040517f08c379a0000000000000000000000000000000000000000000000000000000008152600401611b26906136e7565b60405180910390fd5b60018160090160016101000a81548160ff021916908315150217905550600081600b01600101819055507f45e6fde3bcb2ebd649ec3d2044a78097509a16cea11ccba7165ef9316a66f92f81600001548260020183600301846008015442604051611b9e959493929190613859565b60405180910390a16001915050919050565b606060008210158015611bc7575081600180549050115b611c06576040517f08c379a0000000000000000000000000000000000000000000000000000000008152600401611bfd90613667565b60405180910390fd5b600060018381548110611c42577f4e487b7100000000000000000000000000000000000000000000000000000000600052603260045260246000fd5b9060005260206000209060110201905080600e01805480602002602001604051908101604052809291908181526020016000905b82821015611d1257838290600052602060002090600302016040518060600160405290816000820160009054906101000a900473ffffffffffffffffffffffffffffffffffffffff1673ffffffffffffffffffffffffffffffffffffffff1673ffffffffffffffffffffffffffffffffffffffff1681526020016001820154815260200160028201548152505081526020019060010190611c76565b50505050915050919050565b6000808310158015611d34575082600180549050115b611d73576040517f08c379a0000000000000000000000000000000000000000000000000000000008152600401611d6a90613667565b60405180910390fd5b600060018481548110611daf577f4e487b7100000000000000000000000000000000000000000000000000000000600052603260045260246000fd5b906000526020600020906011020190508273ffffffffffffffffffffffffffffffffffffffff168160010160009054906101000a900473ffffffffffffffffffffffffffffffffffffffff1673ffffffffffffffffffffffffffffffffffffffff161415611e52576040517f08c379a0000000000000000000000000000000000000000000000000000000008152600401611e49906134e7565b60405180910390fd5b60008160100160008573ffffffffffffffffffffffffffffffffffffffff1673ffffffffffffffffffffffffffffffffffffffff1681526020019081526020016000205411611ed6576040517f08c379a0000000000000000000000000000000000000000000000000000000008152600401611ecd90613687565b60405180910390fd5b600081600f0160008573ffffffffffffffffffffffffffffffffffffffff1673ffffffffffffffffffffffffffffffffffffffff1681526020019081526020016000205411611f5a576040517f08c379a0000000000000000000000000000000000000000000000000000000008152600401611f5190613687565b60405180910390fd5b80600f0160008473ffffffffffffffffffffffffffffffffffffffff1673ffffffffffffffffffffffffffffffffffffffff1681526020019081526020016000205491505092915050565b60606006600083815260200190815260200160002080548060200260200160405190810160405280929190818152602001828054801561203a57602002820191906000526020600020905b8160009054906101000a900473ffffffffffffffffffffffffffffffffffffffff1673ffffffffffffffffffffffffffffffffffffffff1681526020019060010190808311611ff0575b50505050509050919050565b6000600254905090565b6060600460008373ffffffffffffffffffffffffffffffffffffffff1673ffffffffffffffffffffffffffffffffffffffff1681526020019081526020016000208054806020026020016040519081016040528092919081815260200182805480156120db57602002820191906000526020600020905b8154815260200190600101908083116120c7575b50505050509050919050565b6060600380548060200260200160405190810160405280929190818152602001828054801561213557602002820191906000526020600020905b815481526020019060010190808311612121575b5050505050905090565b6000806000808510158015612158575084600180549050115b612197576040517f08c379a000000000000000000000000000000000000000000000000000000000815260040161218e90613667565b60405180910390fd5b6000600186815481106121d3577f4e487b7100000000000000000000000000000000000000000000000000000000600052603260045260246000fd5b90600052602060002090601102019050600085101580156121fa57508481600e0180549050115b612239576040517f08c379a0000000000000000000000000000000000000000000000000000000008152600401612230906135a7565b60405180910390fd5b80600e018581548110612275577f4e487b7100000000000000000000000000000000000000000000000000000000600052603260045260246000fd5b906000526020600020906003020160000160009054906101000a900473ffffffffffffffffffffffffffffffffffffffff1681600e0186815481106122e3577f4e487b7100000000000000000000000000000000000000000000000000000000600052603260045260246000fd5b90600052602060002090600302016001015482600e018781548110612331577f4e487b7100000000000000000000000000000000000000000000000000000000600052603260045260246000fd5b906000526020600020906003020160020154935093509350509250925092565b6060600560008373ffffffffffffffffffffffffffffffffffffffff1673ffffffffffffffffffffffffffffffffffffffff1681526020019081526020016000208054806020026020016040519081016040528092919081815260200182805480156123dc57602002820191906000526020600020905b8154815260200190600101908083116123c8575b50505050509050919050565b60008083101580156123fe575082600180549050115b61243d576040517f08c379a000000000000000000000000000000000000000000000000000000000815260040161243490613667565b60405180910390fd5b600060018481548110612479577f4e487b7100000000000000000000000000000000000000000000000000000000600052603260045260246000fd5b906000526020600020906011020190508273ffffffffffffffffffffffffffffffffffffffff168160010160009054906101000a900473ffffffffffffffffffffffffffffffffffffffff1673ffffffffffffffffffffffffffffffffffffffff16141561251c576040517f08c379a0000000000000000000000000000000000000000000000000000000008152600401612513906134e7565b60405180910390fd5b60008160100160008573ffffffffffffffffffffffffffffffffffffffff1673ffffffffffffffffffffffffffffffffffffffff16815260200190815260200160002054116125a0576040517f08c379a000000000000000000000000000000000000000000000000000000000815260040161259790613487565b60405180910390fd5b8060100160008473ffffffffffffffffffffffffffffffffffffffff1673ffffffffffffffffffffffffffffffffffffffff1681526020019081526020016000205491505092915050565b60008060608060608060008060008060006126046129d8565b60008d1015801561261957508c600180549050115b612658576040517f08c379a000000000000000000000000000000000000000000000000000000000815260040161264f90613667565b60405180910390fd5b600060018e81548110612694577f4e487b7100000000000000000000000000000000000000000000000000000000600052603260045260246000fd5b9060005260206000209060110201905080600001548160010160009054906101000a900473ffffffffffffffffffffffffffffffffffffffff168260020183600301846004018560050186600801548760090160009054906101000a900460ff16886006015489600701548a600a01548b600b0189805461271490613b5a565b80601f016020809104026020016040519081016040528092919081815260200182805461274090613b5a565b801561278d5780601f106127625761010080835404028352916020019161278d565b820191906000526020600020905b81548152906001019060200180831161277057829003601f168201915b505050505099508880546127a090613b5a565b80601f01602080910402602001604051908101604052809291908181526020018280546127cc90613b5a565b80156128195780601f106127ee57610100808354040283529160200191612819565b820191906000526020600020905b8154815290600101906020018083116127fc57829003601f168201915b5050505050985087805461282c90613b5a565b80601f016020809104026020016040519081016040528092919081815260200182805461285890613b5a565b80156128a55780601f1061287a576101008083540402835291602001916128a5565b820191906000526020600020905b81548152906001019060200180831161288857829003601f168201915b505050505097508680546128b890613b5a565b80601f01602080910402602001604051908101604052809291908181526020018280546128e490613b5a565b80156129315780601f1061290657610100808354040283529160200191612931565b820191906000526020600020905b81548152906001019060200180831161291457829003601f168201915b50505050509650806040518060600160405290816000820160009054906101000a900473ffffffffffffffffffffffffffffffffffffffff1673ffffffffffffffffffffffffffffffffffffffff1673ffffffffffffffffffffffffffffffffffffffff1681526020016001820154815260200160028201548152505090509c509c509c509c509c509c509c509c509c509c509c509c505091939597999b5091939597999b565b6040518060600160405280600073ffffffffffffffffffffffffffffffffffffffff16815260200160008152602001600081525090565b828054612a1b90613b5a565b90600052602060002090601f016020900481019282612a3d5760008555612a84565b82601f10612a5657805160ff1916838001178555612a84565b82800160010185558215612a84579182015b82811115612a83578251825591602001919060010190612a68565b5b509050612a919190612a95565b5090565b5b80821115612aae576000816000905550600101612a96565b5090565b6000612ac5612ac0846138df565b6138ba565b905082815260208101848484011115612add57600080fd5b612ae8848285613b18565b509392505050565b600081359050612aff816141cc565b92915050565b600082601f830112612b1657600080fd5b8135612b26848260208601612ab2565b91505092915050565b600081359050612b3e816141e3565b92915050565b600060208284031215612b5657600080fd5b6000612b6484828501612af0565b91505092915050565b60008060008060008060c08789031215612b8657600080fd5b600087013567ffffffffffffffff811115612ba057600080fd5b612bac89828a01612b05565b965050602087013567ffffffffffffffff811115612bc957600080fd5b612bd589828a01612b05565b955050604087013567ffffffffffffffff811115612bf257600080fd5b612bfe89828a01612b05565b945050606087013567ffffffffffffffff811115612c1b57600080fd5b612c2789828a01612b05565b9350506080612c3889828a01612b2f565b92505060a0612c4989828a01612b2f565b9150509295509295509295565b600060208284031215612c6857600080fd5b6000612c7684828501612b2f565b91505092915050565b60008060408385031215612c9257600080fd5b6000612ca085828601612b2f565b9250506020612cb185828601612af0565b9150509250929050565b60008060408385031215612cce57600080fd5b6000612cdc85828601612b2f565b9250506020612ced85828601612b2f565b9150509250929050565b6000612d038383612d3f565b60208301905092915050565b6000612d1b8383613241565b60608301905092915050565b6000612d3383836132c5565b60208301905092915050565b612d4881613ad0565b82525050565b612d5781613ad0565b82525050565b6000612d6882613955565b612d7281856139a8565b9350612d7d83613910565b8060005b83811015612dae578151612d958882612cf7565b9750612da083613981565b925050600181019050612d81565b5085935050505092915050565b6000612dc682613960565b612dd081856139b9565b9350612ddb83613920565b8060005b83811015612e0c578151612df38882612d0f565b9750612dfe8361398e565b925050600181019050612ddf565b5085935050505092915050565b6000612e248261396b565b612e2e81856139ca565b9350612e3983613930565b8060005b83811015612e6a578151612e518882612d27565b9750612e5c8361399b565b925050600181019050612e3d565b5085935050505092915050565b612e8081613ae2565b82525050565b6000612e9182613976565b612e9b81856139db565b9350612eab818560208601613b27565b612eb481613c93565b840191505092915050565b60008154612ecc81613b5a565b612ed681866139db565b94506001821660008114612ef15760018114612f0357612f36565b60ff1983168652602086019350612f36565b612f0c85613940565b60005b83811015612f2e57815481890152600182019150602081019050612f0f565b808801955050505b50505092915050565b6000612f4c6013836139db565b9150612f5782613ca4565b602082019050919050565b6000612f6f6031836139db565b9150612f7a82613ccd565b604082019050919050565b6000612f92602b836139db565b9150612f9d82613d1c565b604082019050919050565b6000612fb56033836139db565b9150612fc082613d6b565b604082019050919050565b6000612fd8601d836139db565b9150612fe382613dba565b602082019050919050565b6000612ffb6018836139db565b915061300682613de3565b602082019050919050565b600061301e6018836139db565b915061302982613e0c565b602082019050919050565b6000613041602a836139db565b915061304c82613e35565b604082019050919050565b60006130646022836139db565b915061306f82613e84565b604082019050919050565b6000613087601d836139db565b915061309282613ed3565b602082019050919050565b60006130aa602d836139db565b91506130b582613efc565b604082019050919050565b60006130cd601d836139db565b91506130d882613f4b565b602082019050919050565b60006130f06022836139db565b91506130fb82613f74565b604082019050919050565b60006131136020836139db565b915061311e82613fc3565b602082019050919050565b60006131366032836139db565b915061314182613fec565b604082019050919050565b6000613159601b836139db565b91506131648261403b565b602082019050919050565b600061317c6018836139db565b915061318782614064565b602082019050919050565b600061319f6021836139db565b91506131aa8261408d565b604082019050919050565b60006131c2601d836139db565b91506131cd826140dc565b602082019050919050565b60006131e56021836139db565b91506131f082614105565b604082019050919050565b60006132086035836139db565b915061321382614154565b604082019050919050565b600061322b601f836139db565b9150613236826141a3565b602082019050919050565b6060820160008201516132576000850182612d3f565b50602082015161326a60208501826132c5565b50604082015161327d60408501826132c5565b50505050565b6060820160008201516132996000850182612d3f565b5060208201516132ac60208501826132c5565b5060408201516132bf60408501826132c5565b50505050565b6132ce81613b0e565b82525050565b6132dd81613b0e565b82525050565b60006020820190506132f86000830184612d4e565b92915050565b60006040820190506133136000830185612d4e565b61332060208301846132d4565b9392505050565b600060608201905061333c6000830186612d4e565b61334960208301856132d4565b61335660408301846132d4565b949350505050565b600060208201905081810360008301526133788184612d5d565b905092915050565b6000602082019050818103600083015261339a8184612dbb565b905092915050565b600060208201905081810360008301526133bc8184612e19565b905092915050565b60006020820190506133d96000830184612e77565b92915050565b600060c08201905081810360008301526133f98189612ebf565b905061340860208301886132d4565b6134156040830187612d4e565b6134226060830186612d4e565b61342f60808301856132d4565b61343c60a08301846132d4565b979650505050505050565b6000602082019050818103600083015261346081612f3f565b9050919050565b6000602082019050818103600083015261348081612f62565b9050919050565b600060208201905081810360008301526134a081612f85565b9050919050565b600060208201905081810360008301526134c081612fa8565b9050919050565b600060208201905081810360008301526134e081612fcb565b9050919050565b6000602082019050818103600083015261350081612fee565b9050919050565b6000602082019050818103600083015261352081613011565b9050919050565b6000602082019050818103600083015261354081613034565b9050919050565b6000602082019050818103600083015261356081613057565b9050919050565b600060208201905081810360008301526135808161307a565b9050919050565b600060208201905081810360008301526135a08161309d565b9050919050565b600060208201905081810360008301526135c0816130c0565b9050919050565b600060208201905081810360008301526135e0816130e3565b9050919050565b6000602082019050818103600083015261360081613106565b9050919050565b6000602082019050818103600083015261362081613129565b9050919050565b600060208201905081810360008301526136408161314c565b9050919050565b600060208201905081810360008301526136608161316f565b9050919050565b6000602082019050818103600083015261368081613192565b9050919050565b600060208201905081810360008301526136a0816131b5565b9050919050565b600060208201905081810360008301526136c0816131d8565b9050919050565b600060208201905081810360008301526136e0816131fb565b9050919050565b600060208201905081810360008301526137008161321e565b9050919050565b600060208201905061371c60008301846132d4565b92915050565b60006101c082019050613738600083018f6132d4565b613745602083018e612d4e565b8181036040830152613757818d612e86565b9050818103606083015261376b818c612e86565b9050818103608083015261377f818b612e86565b905081810360a0830152613793818a612e86565b90506137a260c08301896132d4565b6137af60e0830188612e77565b6137bd6101008301876132d4565b6137cb6101208301866132d4565b6137d96101408301856132d4565b6137e7610160830184613283565b9d9c50505050505050505050505050565b600060a08201905061380d60008301886132d4565b818103602083015261381f8187612e86565b905081810360408301526138338186612e86565b905061384260608301856132d4565b61384f60808301846132d4565b9695505050505050565b600060a08201905061386e60008301886132d4565b81810360208301526138808187612ebf565b905081810360408301526138948186612ebf565b90506138a360608301856132d4565b6138b060808301846132d4565b9695505050505050565b60006138c46138d5565b90506138d08282613b8c565b919050565b6000604051905090565b600067ffffffffffffffff8211156138fa576138f9613c64565b5b61390382613c93565b9050602081019050919050565b6000819050602082019050919050565b6000819050602082019050919050565b6000819050602082019050919050565b60008190508160005260206000209050919050565b600081519050919050565b600081519050919050565b600081519050919050565b600081519050919050565b6000602082019050919050565b6000602082019050919050565b6000602082019050919050565b600082825260208201905092915050565b600082825260208201905092915050565b600082825260208201905092915050565b600082825260208201905092915050565b60006139f782613b0e565b9150613a0283613b0e565b9250827fffffffffffffffffffffffffffffffffffffffffffffffffffffffffffffffff03821115613a3757613a36613c06565b5b828201905092915050565b6000613a4d82613b0e565b9150613a5883613b0e565b9250817fffffffffffffffffffffffffffffffffffffffffffffffffffffffffffffffff0483118215151615613a9157613a90613c06565b5b828202905092915050565b6000613aa782613b0e565b9150613ab283613b0e565b925082821015613ac557613ac4613c06565b5b828203905092915050565b6000613adb82613aee565b9050919050565b60008115159050919050565b600073ffffffffffffffffffffffffffffffffffffffff82169050919050565b6000819050919050565b82818337600083830152505050565b60005b83811015613b45578082015181840152602081019050613b2a565b83811115613b54576000848401525b50505050565b60006002820490506001821680613b7257607f821691505b60208210811415613b8657613b85613c35565b5b50919050565b613b9582613c93565b810181811067ffffffffffffffff82111715613bb457613bb3613c64565b5b80604052505050565b6000613bc882613b0e565b91507fffffffffffffffffffffffffffffffffffffffffffffffffffffffffffffffff821415613bfb57613bfa613c06565b5b600182019050919050565b7f4e487b7100000000000000000000000000000000000000000000000000000000600052601160045260246000fd5b7f4e487b7100000000000000000000000000000000000000000000000000000000600052602260045260246000fd5b7f4e487b7100000000000000000000000000000000000000000000000000000000600052604160045260246000fd5b6000601f19601f8301169050919050565b7f4e6f206269647320706c61636564207965742e00000000000000000000000000600082015250565b7f42696420616d6f756e74206d7573742062652067726561746572207468616e2060008201527f7468652070726576696f7573206f6e6521000000000000000000000000000000602082015250565b7f5468657265206973206e6f2062696420616d6f756e7420706c6163656420627960008201527f2074686973207573657221000000000000000000000000000000000000000000602082015250565b7f41756374696f6e206d757374206265207374617274656420666972737420746f60008201527f2062652061626c6520746f2063616e63656c2100000000000000000000000000602082015250565b7f5468657265206973206e6f7468696e6720746f20776974686472617721000000600082015250565b7f4f776e65722063616e6e6f7420706c6163652062696473210000000000000000600082015250565b7f41756374696f6e206d7573742062652073746172746564210000000000000000600082015250565b7f426964206d7573742062652067726561746572207468616e207468652070726560008201527f76696f7573206269642100000000000000000000000000000000000000000000602082015250565b7f42696420616d6f756e74206d7573742062652067726561746572207468616e2060008201527f3021000000000000000000000000000000000000000000000000000000000000602082015250565b7f41756374696f6e2068617320616c72656164792063616e63656c656421000000600082015250565b7f456e642074696d65206d7573742062652067726561746572207468616e20746860008201527f652073746172742074696d652100000000000000000000000000000000000000602082015250565b7f5468657265206973206e6f206269642077697468207468697320696421000000600082015250565b7f4f6e6c79206f776e65722063616e2063616e63656c207468652061756374696f60008201527f6e21000000000000000000000000000000000000000000000000000000000000602082015250565b7f496e76616c69642074696d6520746f20656e64207468652061756374696f6e21600082015250565b7f41756374696f6e206d75737420626520636c6f736564206f722063616e63656c60008201527f656420666f72207769746864726177616c2e0000000000000000000000000000602082015250565b7f41756374696f6e2068617320616c726561647920636c6f736564210000000000600082015250565b7f53746172742070726963652063616e6e6f742062652030210000000000000000600082015250565b7f5468657265206973206e6f2061756374696f6e2077697468207468697320696460008201527f2100000000000000000000000000000000000000000000000000000000000000602082015250565b7f55736572206861736e277420706c616365642061206269642079657421000000600082015250565b7f41756374696f6e2074696d6520686173206e6f7420737461727465642079657460008201527f2100000000000000000000000000000000000000000000000000000000000000602082015250565b7f426964206d7573742062652067726561746572207468616e206f72206571756160008201527f6c20746f20746865207374617274207072696365210000000000000000000000602082015250565b7f41756374696f6e2074696d652068617320616c726561647920656e6465642100600082015250565b6141d581613ad0565b81146141e057600080fd5b50565b6141ec81613b0e565b81146141f757600080fd5b5056fea2646970667358221220662cc4ef3de1a04fe19c7e750d680d11b0ccb90748a2e08befc80e986c8f409164736f6c63430008040033",
  "immutableReferences": {},
  "source": "// SPDX-License-Identifier: DEBID\n\npragma solidity ^0.8.0;\n\ncontract DebidAuction {\n    struct Bid {\n        address bidder;\n        uint amount;\n        uint time;\n    }\n\n    struct Auction {\n        uint id;\n        address owner;\n        string ownerName;\n        string title;\n        string description;\n        string imagePath;\n        uint startTime;\n        uint endTime;\n        uint startPrice;\n        bool isActive;\n        bool isCanceled;\n        uint totalBidCount;\n        Bid highestBid;\n        Bid[] allBids;\n        mapping(address => uint) bids; // bidder address -> bid amount\n        mapping(address => uint) bidCountOfUser; // total bid count of the bidder\n    }\n\n    address internal contractOwner;\n    Auction[] internal auctions;\n    uint internal totalAuctionCount;\n    uint[] internal auctionIdList;\n    mapping(address => uint[]) auctionIdsOfOwner;\n    mapping(address => uint[]) auctionIdsOfBidder;\n    mapping(uint => address[]) biddersOfAuction;\n\n    event AuctionStarted(uint id, string ownerName, string title, uint startPrice, uint startTime);\n    event AuctionClosed(string title, uint startPrice, address owner, address highestBidder, uint highestBidAmount, uint duration);\n    event AuctionCanceled(uint id, string ownerName, string title, uint startPrice, uint cancelTime);\n    event HighestBidIncreased(address bidder, uint amount);\n    event PreviousBidderRefunded(address prevBidder, uint prevBidAmount, uint refundTime);\n    event Transfered(address user, uint amount);\n    event Withdrawn(address user, uint amount);\n\n    constructor() {\n        contractOwner = msg.sender;  // who deploys it, owns the contract.\n        totalAuctionCount = 0;\n    }\n\n    function createAuction(string memory _ownerName, string memory _title, string memory _description,\n        string memory _imagePath, uint _startPrice, uint _endTime) public returns (uint) {\n        require(block.timestamp <= _endTime, \"Invalid time to end the auction!\");\n        //require(block.timestamp >= _startTime, \"Invalid time to start the auction!\");\n        require(block.timestamp < _endTime, \"End time must be greater than the start time!\");\n        require(_startPrice > 0, \"Start price cannot be 0!\");\n        \n        auctions.push();\n        uint auctionId = totalAuctionCount;         \n        Auction storage auction = auctions[auctionId];\n\n        auction.id = auctionId;\n        auction.owner = msg.sender;     // who calls this function, owns the auction.\n        auction.ownerName = _ownerName;\n        auction.title = _title;\n        auction.description = _description;\n        auction.imagePath = _imagePath;\n        auction.startPrice = _startPrice * (1 ether);       //!! convert avax \n        auction.startTime = block.timestamp;        \n        auction.endTime = _endTime;\n        auction.isActive = true;\n        auction.isCanceled = false;\n        auction.totalBidCount = 0;\n\n        //auctionsById[auctionId] = auction;\n        auctionIdsOfOwner[msg.sender].push(auctionId);\n        auctionIdList.push(auctionId);\n        totalAuctionCount++;\n\n        emit AuctionStarted(auctionId, _ownerName, _title, _startPrice, auction.startTime);\n        return auctionId;\n    }\n\n    function bid(uint _auctionId) public payable returns (bool) {\n        require(_auctionId >= 0 && auctions.length > _auctionId, \"There is no auction with this id!\");\n        Auction storage auction = auctions[_auctionId];\n\n        require(auction.owner != msg.sender, \"Owner cannot place bids!\");\n        require(auction.isActive, \"Auction must be started!\");\n        require(!auction.isCanceled, \"Auction has already canceled!\");\n        require(block.timestamp >= auction.startTime, \"Auction time has not started yet!\");\n        require(block.timestamp <= auction.endTime, \"Auction time has already ended!\");\n        require(msg.value > 0, \"Bid amount must be greater than 0!\");\n\n        // when first bid has been placed, control the start price\n        if (auction.highestBid.amount == 0) {\n            require(msg.value >= auction.startPrice,\"Bid must be greater than or equal to the start price!\");\n        }\n        \n        Bid memory prevBid;\n        uint tempAmount;\n        \n        // if there is a previous bid\n        if( auction.totalBidCount > 0 ) {\n            prevBid = auction.highestBid;\n            tempAmount = prevBid.amount;\n        }\n\n        // check if new bid is greater than previous amount  \n        require(msg.value > tempAmount,\"Bid amount must be greater than the previous one!\");\n        \n        // refund the previous bidder\n        if( auction.totalBidCount > 0 ) {\n            if(!payable(prevBid.bidder).send(prevBid.amount)) {\n                revert();\n            }  \n            emit PreviousBidderRefunded(prevBid.bidder, prevBid.amount, block.timestamp);\n        }\n        \n        uint newBidAmount = msg.value;      /*+ auction.bids[msg.sender]*/\n        require(newBidAmount > auction.highestBid.amount, \"Bid must be greater than the previous bid!\");\n\n        auction.highestBid.bidder = msg.sender;\n        auction.highestBid.amount = newBidAmount;\n        auction.highestBid.time = block.timestamp;\n\n        auction.bids[msg.sender] += newBidAmount;\n        biddersOfAuction[auction.id].push(msg.sender);\n        auction.allBids.push(auction.highestBid);\n        auctionIdsOfBidder[msg.sender].push(auction.id);\n        auction.bidCountOfUser[msg.sender]++;\n        auction.totalBidCount++;\n\n        emit Transfered(msg.sender, msg.value);\n        emit HighestBidIncreased(msg.sender, newBidAmount);\n        \n        return true;\n    }\n\n    function closeAuction(uint _auctionId) public returns (bool) {\n        // trigger this function automatically when auction time is over.\n        require(_auctionId >= 0 && auctions.length > _auctionId,\"There is no auction with this id!\");\n        Auction storage auction = auctions[_auctionId];\n        \n        require(auction.isActive, \"Auction has already closed!\");\n        require(!auction.isCanceled, \"Auction has already canceled!\");\n        require(block.timestamp >= auction.startTime, \"Auction time has not started yet!\");\n        require(block.timestamp <= auction.endTime, \"Auction time has already ended!\");\n        \n        auction.isActive = false;\n        \n        emit AuctionClosed(\n            auction.title,\n            auction.startPrice,\n            auction.owner,\n            auction.highestBid.bidder,\n            auction.highestBid.amount,\n            auction.endTime - auction.startTime\n        );\n        \n        return true;\n    }\n\n    function withdraw(uint _auctionId) public returns (bool) {\n        require(_auctionId >= 0 && auctions.length > _auctionId,\"There is no auction with this id!\");\n        Auction storage auction = auctions[_auctionId];\n        \n        require(!auction.isActive || auction.isCanceled, \"Auction must be closed or canceled for withdrawal.\");\n\n        //require(block.timestamp > auction.endTime, \"Auction time must be ended!\");\n\n        uint withdrawalAmount;\n    \n        // if the auction was canceled, everyone should simply be allowed to withdraw their funds.\n        if (auction.isCanceled) {\n            withdrawalAmount = auction.bids[msg.sender];\n        }\n        // if the auction finished without being canceled\n        else {\n            // the owner of the auction should be allowed to withdraw the highest bid amount.\n            if (msg.sender == auction.owner) {\n                withdrawalAmount = auction.highestBid.amount;\n                auction.highestBid.amount = 0;\n                auction.bids[auction.highestBid.bidder] = 0;\n            }\n            // highest bidder gets no money\n            else if (msg.sender == auction.highestBid.bidder) {\n                withdrawalAmount = 0;\n            }\n            // anyone who participated but did not win the auction should be allowed to withdraw.\n            // now refund for previous bidder is made as soon as there is a high offer in bid() method.\n            // old version:\n            // else { \n            //     withdrawalAmount = auction.bids[msg.sender];\n            //     auction.bids[msg.sender] -= withdrawalAmount;\n            // }\n        }\n        \n        require(withdrawalAmount > 0, \"There is nothing to withdraw!\");\n        payable(msg.sender).transfer(withdrawalAmount);  // send the funds\n\n        emit Withdrawn(msg.sender, withdrawalAmount);\n\n        return true;\n    }\n\n    function cancelAuction(uint _auctionId) public returns (bool) {\n        require(_auctionId >= 0 && auctions.length > _auctionId,\"There is no auction with this id!\");\n        Auction storage auction = auctions[_auctionId];\n        \n        require(auction.owner == msg.sender, \"Only owner can cancel the auction!\");\n        require(auction.isActive, \"Auction must be started first to be able to cancel!\");\n        require(block.timestamp >= auction.startTime, \"Auction time has not started yet!\");\n        require(block.timestamp <= auction.endTime, \"Auction time has already ended!\");\n        \n        auction.isCanceled = true;\n        auction.highestBid.amount = 0;      // owner wont get any money from canceled auction. \n        \n        emit AuctionCanceled(auction.id, auction.ownerName, auction.title, auction.startPrice, block.timestamp);\n        return true;\n    }\n    \n    function getAuctionDetails(uint _auctionId) public view returns (uint, address, string memory, string memory, \n        string memory, string memory, uint, bool, uint, uint, uint, Bid memory) {\n        require(_auctionId >= 0 && auctions.length > _auctionId, \"There is no auction with this id!\");\n        Auction storage auction = auctions[_auctionId];\n\n        return (\n            auction.id,auction.owner, auction.ownerName,\n            auction.title, auction.description, auction.imagePath,\n            auction.startPrice, auction.isActive,\n            auction.startTime, auction.endTime,\n            auction.totalBidCount, auction.highestBid\n        );\n    }\n    \n    function getAuctionById(uint _auctionId) internal view returns (Auction storage) {\n        require(_auctionId >= 0 && auctions.length > _auctionId, \"There is no auction with this id!\");\n        Auction storage auction = auctions[_auctionId];\n\n        return auction;\n    }\n\n    function getAllAuctionIdsOfOwner(address _owner) public view returns (uint[] memory) {\n        return auctionIdsOfOwner[_owner];\n    }\n\n    function getAllAuctionIdsOfBidder(address _bidder) public view returns (uint[] memory) {\n        return auctionIdsOfBidder[_bidder];\n    }\n\n    function getAllBidderAddressesOfAuction(uint _auctionId) public view returns (address[] memory) {\n        return biddersOfAuction[_auctionId];\n    }\n    \n    function getBidById(uint _auctionId, uint _bidId) public view returns (address, uint, uint) {\n        require(_auctionId >= 0 && auctions.length > _auctionId,\"There is no auction with this id!\");\n        Auction storage auction = auctions[_auctionId];\n        require(_bidId >= 0 && auction.allBids.length > _bidId,\"There is no bid with this id!\");\n          \n        return (auction.allBids[_bidId].bidder, auction.allBids[_bidId].amount, auction.allBids[_bidId].time);\n    }\n\n    function geHighestBidOfAuction(uint _auctionId) public view returns (address, uint, uint) {\n        require(_auctionId >= 0 && auctions.length > _auctionId, \"There is no auction with this id!\");\n        Auction storage auction = auctions[_auctionId];\n\n        require(auction.highestBid.amount != 0, \"No bids placed yet.\");\n\n        return (\n            auction.highestBid.bidder,\n            auction.highestBid.amount,\n            auction.highestBid.time\n        );\n    }\n\n    function getBidCountOfAuction(uint _auctionId) public view returns (uint) {\n        require(_auctionId >= 0 && auctions.length > _auctionId, \"There is no auction with this id!\");\n        Auction storage auction = auctions[_auctionId];\n\n        return auction.totalBidCount;\n    }\n\n    function getBidCountOfBidder(uint _auctionId, address _bidder) public view returns (uint) {\n        require(_auctionId >= 0 && auctions.length > _auctionId, \"There is no auction with this id!\");\n        Auction storage auction = auctions[_auctionId];\n\n        require(auction.owner != _bidder, \"Owner cannot place bids!\");\n        require(auction.bidCountOfUser[_bidder] > 0, \"There is no bid amount placed by this user!\");\n\n        return auction.bidCountOfUser[_bidder];\n    }\n\n    function getBidAmountOfBidder(uint _auctionId, address _bidder) public view returns (uint) {\n        require(_auctionId >= 0 && auctions.length > _auctionId, \"There is no auction with this id!\");\n        Auction storage auction = auctions[_auctionId];\n\n        require(auction.owner != _bidder, \"Owner cannot place bids!\");\n        require(auction.bidCountOfUser[_bidder] > 0, \"User hasn't placed a bid yet!\");\n        require(auction.bids[_bidder] > 0, \"User hasn't placed a bid yet!\");\n        \n        return auction.bids[_bidder];\n    }\n    \n    function getAllBids(uint _auctionId) public view returns (Bid[] memory) {\n        require(_auctionId >= 0 && auctions.length > _auctionId,\"There is no auction with this id!\");\n        Auction storage auction = auctions[_auctionId];\n\n        return auction.allBids;\n    }\n    \n    function getAllAuctions() public view returns (uint[] memory) {\n        //!! Can't return Auction[] memory\n        // TypeError: Types containing (nested) mappings can only be parameters or return variables of internal or library functions.\n        return auctionIdList;\n    }\n\n    function getAuctionCount() public view returns (uint) {\n        return totalAuctionCount;\n    }\n    \n    //------------ remove after development -----------------\n    function getContractOwner() public view returns (address) {\n        return contractOwner;\n    }\n\n    function getContractAddress() public view returns (address) {\n        return address(this);\n    }\n\n    function getContractBalance() public view returns (uint) {\n        return address(this).balance;\n    }\n    //------------------------------------------------------\n    \n    // function getTimePassed(uint _auctionId) public view returns (uint){\n    //     require(_auctionId >= 0 && auctions.length > _auctionId, \"There is no auction with this id!\");\n    //     Auction storage auction = auctions[_auctionId];\n    //     require(block.timestamp > auction.startTime, \"Auction has not been started!\");\n        \n    //     return block.timestamp - auction.startTime; \n    // }\n    \n    // function getRemainingTime(uint _auctionId) public view returns (uint){\n    //     require(_auctionId >= 0 && auctions.length > _auctionId, \"There is no auction with this id!\");\n    //     Auction storage auction = auctions[_auctionId];\n        \n    //     return auction.endTime - auction.startTime;\n    // }\n    \n    // function getPercentIncrease (uint _auctionId) public view returns (uint) {\n\t//    require(_auctionId >= 0 && auctions.length > _auctionId, \"There is no auction with this id!\");\n    //    Auction storage auction = auctions[_auctionId];\n        \n    //    require(auction.isActive, \"Auction must be started!\");\n    //    require(!auction.isCanceled, \"Auction has already canceled!\");\n        \n    //    if(block.timestamp < auction.startTime) return 0;\n        \n\t//\treturn ((uint(auction.highestBid.amount) - uint(auction.startPrice)) * 100 / uint(auction.startPrice));\n\t// }\n\n    // function getCurrentAuctionDetails() public view returns (address, string memory, string memory,\n    //         uint, bool, uint, uint, uint, Bid memory) {\n    //     require(auctions.length > 0, \"There is no auction!\");\n    //     Auction storage auction = auctions[auctions.length - 1];\n\n    //     return (\n    //         auction.owner,\n    //         auction.title,\n    //         auction.description,\n    //         auction.startPrice,\n    //         auction.isActive,\n    //         auction.startTime,\n    //         auction.endTime,\n    //         auction.totalBidCount,\n    //         auction.highestBid\n    //     );\n    // }\n\n    // function getAllBiddersOfCurrentAuction() public view returns (address[] memory) {\n    //     require(auctions.length > 0, \"There is no auction!\");\n    //     Auction storage auction = auctions[auctions.length - 1];\n\n    //     return biddersOfAuction[auction.id];\n    // }\n\n    // function getCurrentHighestBid() public view returns (address, uint, uint) {\n    //     require(auctions.length > 0, \"There is no auction!\");\n    //     Auction storage auction = auctions[auctions.length - 1];\n\n    //     require(auction.highestBid.amount != 0, \"No bids placed yet.\");\n\n    //     return (\n    //         auction.highestBid.bidder,\n    //         auction.highestBid.amount,\n    //         auction.highestBid.time\n    //     );\n    // }\n\n    // function getBidCountOfCurrentAuction() public view returns (uint) {\n    //     require(auctions.length > 0, \"There is no auction!\");\n    //     Auction storage auction = auctions[auctions.length - 1];\n\n    //     return auction.totalBidCount;\n    // }\n\n    // function getBidCountOfUserByCurrentAuction(address _user) public view returns (uint) {\n    //     require(auctions.length > 0, \"There is no auction!\");\n    //     Auction storage auction = auctions[auctions.length - 1];\n\n    //     require(auction.owner != _user, \"Owner cannot place bids!\");\n    //     require(\n    //         auction.bidCountOfUser[_user] > 0,\n    //         \"User hasn't placed a bid yet!\"\n    //     );\n\n    //     return auction.bidCountOfUser[_user];\n    // }\n}\n",
  "sourcePath": "/home/c8r/repos/debid/contracts/DebidAuction.sol",
  "compiler": {
    "name": "solc",
    "version": "0.8.4+commit.c7e474f2.Emscripten.clang"
  },
  "schemaVersion": "3.3.4",
  "updatedAt": "2021-04-24T03:53:47.575Z",
  "devdoc": {
    "kind": "dev",
    "methods": {},
    "version": 1
  },
  "userdoc": {
    "kind": "user",
    "methods": {},
    "version": 1
  }
}